:020000040800F2
:100000001004002039010008E307000895010008EA
:10001000E1070008810100083D0800080000000019
:10002000000000000000000000000000E7070008DA
:100030008301000800000000E5070008E907000848
:100040005301000853010008530100085301000840
:100050005301000853010008530100085301000830
:100060005301000853010008530100085301000820
:100070005301000853010008530100085301000810
:100080005301000853010008530100085301000800
:1000900053010008530100085301000853010008F0
:1000A00053010008530100085301000853010008E0
:1000B00053010008530100085301000853010008D0
:1000C00053010008530100085301000853010008C0
:1000D00053010008530100085301000853010008B0
:1000E00053010008530100085301000853010008A0
:1000F00053010008000000005301000853010008EC
:100100000000000000000000530100085301000837
:1001100053010008530100085301000800000000CB
:1001200053010008DFF80CD000F018F80048004731
:100130005D08000810040020064880470648004774
:10014000FEE7FEE7FEE7FEE7FEE7FEE7FEE7FEE787
:10015000FEE7FEE7ED07000825010008064C074D05
:1001600006E0E06840F0010394E807009847103487
:10017000AC42F6D3FFF7DAFFC0080008E008000839
:10018000FEE7704702488168426811448160704709
:1001900000000020FEE7000070B50078002434283D
:1001A00065D014DC2F285AD008DC202834D025282C
:1001B00057D02A2844D02D281DD14DE0302856D0C4
:1001C000312854D0322852D0332814D14FE0392866
:1001D0004DD008DC35284AD0362848D0372846D0BC
:1001E000382808D143E03F282DD06D282ED06E2826
:1001F0002FD0FF2838D0A0F14106204D1A2E03D26F
:1002000005EB400434F8824CA0F161061A2E03D2AB
:1002100005EB400030F8C24C09B144F002040AB1C9
:1002200044F020040C21002024FA01F202F00F0215
:100230001A54091F401CC0B2C9B20428F4D370BDBF
:100240004AF2DD04E8E746F28404E5E74BF21024C5
:10025000E2E742F21024DFE74FF42044DCE7C02459
:10026000DAE74FF43344D7E74FF6DD74D4E7034CB5
:10027000343404EB400030F8604CCDE778080008D7
:1002800070B50D4E054630684007FCD4287801242F
:1002900060B1002223461146284600F0F1F8641CA4
:1002A00015F8010FE4B208B1082CF2D3306840F021
:1002B0000400306070BD0000082400402D48016833
:1002C0002D4A114301602D48016841F4807101609D
:1002D00028481030016841F400010160016821F4F0
:1002E00000010160016841F48071016001688905C5
:1002F000FCD5016841F4803101602148016821F09A
:1003000060010160016841F040010160016821F075
:100310001C010160016841F00C010160016841F0BD
:1003200080010160011D0A6822F070720A600A688B
:1003300022F470120A600A6842F082720A600A6847
:1003400022F4E0520A600A6842F400620A60091D61
:100350000A689206FCD5026822F002020260026876
:1003600042F0010202600868C006FCD50868C007B8
:10037000FCD070472438024000020010007000409A
:100380000024004030B53348016841F007010160A6
:1003900031480168314A1143016031490A68314BE3
:1003A0001A430A6030490A68304B1A430A604168B0
:1003B00048F20E72914341602949091D0A684FF6BF
:1003C00038739A430A602849091D0A6840F6CF73BA
:1003D0009A430A60C26826490A40C260204B0C3327
:1003E0001C684FF23F0214401C601F4B0C331C680A
:1003F000204D2C401C6083680B40836018490831F5
:100400000B6813400B60184908310A6802F47062E7
:100410000A60016A4BF6B03211430162416A164A22
:10042000114341620E4820300168120311430160FC
:10043000001D016841F0BB3101600B4820300168AC
:100440000E4A11430160001D01684BF6BB32114397
:10045000016030BD1C38024000000240A8002A8024
:1004600000040240800AAAAA00080240AAA0AA002A
:1004700003FFC03F000F00FFBB0B00B0BBBB00BBC6
:10048000F8B51C466B46FFF787FED148D049D04AE5
:10049000CF4B083010311832072C7DD2DFE804F042
:1004A0007C043B89C7FCFB001D68CA4C25401D60CD
:1004B0000568254005600D6825400D6015682540DC
:1004C00015609DF8004004F0030504F00C0445EAB3
:1004D00084641D682C431C609DF8013003F0030404
:1004E00003F00C0344EA83630468234303609DF82C
:1004F000020000F0030300F00C0043EA80600B6888
:10050000184308609DF8030000F0030100F00C00A0
:1005100041EA806006E11D68AF4C25401D6005681A
:10052000254005600D6825400D6015682540156063
:100530001D689DF8004004F00C0645EA066504F0CD
:100540000206B60104F0010446EA840425431D6056
:1005500004689DF8013003F00C0544EA056403F0DB
:100560000205AD0103F0010345EA83031C43046067
:100570000B689DF8020000F00C0443EA046300F0ED
:100580000204A40100F0010044EA800003430B6070
:1005900011689DF8030000E0C7E000F00C0341EA99
:1005A000036100F002039B0100F0010043EA8000B8
:1005B0000AE11C6824F003241C60046824F003246E
:1005C00004600C6824F003240C60146824F00324F5
:1005D00014609DF8004004F00C05AD0504F0030420
:1005E00045EA04241D682C431C609DF8013003F08B
:1005F0000C04A40503F0030344EA03230468234323
:1006000003609DF8020000F00C039B0500F003005E
:1006100043EA00200B68184308609DF8030000F0CF
:100620000C01890500F0030041EA00207AE01D6812
:100630006A4C25401D600568254005600D68254011
:100640000D601568254015609DF8004004F00C050C
:10065000AD0404F0030445EA84241D682C431C60A7
:100660009DF8013003F00C04A40403F0030344EAF2
:1006700083230468234303609DF8020000F00C0309
:100680009B0400F0030043EA80200B6818430860D5
:100690009DF8030001E049E007E000F00C01890447
:1006A00000F0030041EA80203CE01C6824F443246D
:1006B0001C60046824F4432404600C6824F441247E
:1006C0000C60146824F4412414609DF8004004F088
:1006D0000C052D0404F0030445EA04341D682C4382
:1006E0001C609DF8013003F00C04240403F00303A4
:1006F00044EA03330468234303609DF8020000F0DA
:100700000C031B0400F0010043EA00300B6818439F
:1007100008609DF8030000F00C01090400F00100DE
:1007200041EA0030116808431060F8BD1C6824F4E9
:1007300070341C60046824F4703404600C6824F481
:1007400070340C60146824F4703414601D689DF8D3
:10075000004004F0040645EAC63504F008067603B6
:1007600004F0030446EA843425431D6004689DF8C0
:10077000013003F0040544EAC53403F008056D03B5
:1007800003F0030345EA83331C4304600B689DF8C0
:10079000020000F0040443EAC43300F008046403D8
:1007A00000F0010044EA803003430B6011689DF8BB
:1007B000030000F0040341EAC33100F008035B03C7
:1007C00000F0010043EA803001431160F8BD0000F1
:1007D00014240040FCFFFFCF03FFFFF3FFF3CFFF24
:1007E000FEE7704770477047FFF7CCBC0F480168C1
:1007F00041F4807101600D4908310A680C4B1A40C0
:100800000A6002680B4B1A400260026822F48022E0
:100810000260086820F47D0008600020091D08605F
:1008200005494FF000600860704700000038024042
:100830000CC0FF88FEFFFEEE08ED00E0FEE702E0E0
:1008400008C8121F08C1002AFAD17047704700205B
:1008500001E001C1121F002AFBD17047FFF792FD92
:10086000FFF72CFD01A0FFF70BFDFEE748414252C8
:100870004F4841425200000000FE1467001D14471B
:10088000009D009C003F00FA14000053419800199D
:10089000485A095A005F00FC015F01FC00AF1404D4
:1008A000005BC018815AC9005800C005005F0042B3
:1008B00000F5006700EA00AF00BF004600FF00EF50
:1008C000E0080008000000200C0000003E080008BE
:1008D000EC0800080C000020040400004E0800088A
:0C08E000100000000100000000000000FB
:0400000508000125C9
:00000001FF
