:020000040800F2
:10000000100400203901000873110008950A000847
:1000100071110008B5010008C512000800000000B9
:10002000000000000000000000000000F9110008BE
:10003000B70100080000000075110008FB1100085E
:100040005301000853010008530100085301000840
:100050005301000853010008530100085301000830
:100060005301000853010008530100085301000820
:100070005301000853010008530100085301000810
:100080005301000853010008530100085301000800
:1000900053010008530100085301000853010008F0
:1000A00053010008530100085301000853010008E0
:1000B00053010008530100085301000853010008D0
:1000C00053010008530100085301000853010008C0
:1000D00053010008530100085301000853010008B0
:1000E00053010008530100085301000853010008A0
:1000F00053010008000000005301000853010008EC
:100100000000000000000000530100085301000837
:1001100053010008530100085301000800000000CB
:1001200053010008DFF80CD000F032F80048004717
:1001300019130008100400200648804706480047AD
:10014000FEE7FEE7FEE7FEE7FEE7FEE7FEE7FEE787
:10015000FEE7FEE77512000825010008D2B201E0B3
:1001600000F8012B491EFBD270470022F6E710B5BC
:1001700013460A4604461946FFF7F0FF204610BD15
:10018000421C10F8011B0029FBD1801A70470000A7
:10019000064C074D06E0E06840F0010394E80700D4
:1001A00098471034AC42F6D3FFF7C0FF181400088C
:1001B00038140008FEE7704770B5044600F00EF8EA
:1001C0000546601C02D004484068044400F006F86C
:1001D000401BA042FAD370BD000000200148806897
:1001E0007047000000000020024881684268114406
:1001F000816070470000002010B50024032000F04B
:100200006FF8002000F008F808B1012401E000F0C8
:1002100025F8204610BD000070B50E4E054600249E
:10022000706898B14FF47A71B1FBF0F00A4909682F
:10023000B1FBF0F000F01AFC40B9102D06D20022FC
:100240002946501E00F02CF8356000E001242046BD
:1002500070BD0000000000200C0000200F4882B09C
:10026000016841F000410160016801F00041009126
:10027000011F0A6842F001020A60096801F00101E9
:100280000091016841F080510160006800F08050E9
:100290000090072002B000F023B80000243802408C
:1002A000F0B40E4B1B680C46C3F30223C3F10705E1
:1002B000042D00D90425191D072901D2002300E0CF
:1002C000DB1E012606FA05F1491E214099409E4099
:1002D000761E16403143F0BC00F0F5BF0CED00E097
:1002E000064900F0070208684FF6FF03184040EA8D
:1002F0000220034A10430860704700000CED00E044
:100300000000FA052DE9F84F04460068C10701D145
:1003100080076FD5474E00273068C00008D430688A
:1003200040F0805030603068012700F0805000902D
:1003300041480168C90512D40168804641F48071C2
:100340000160FFF74BFF054605E000BFFFF746FFE2
:10035000401B64284CD8D8F80000C005F6D5DFF85B
:10036000D480A8F12408D8F80000616800F0C040EB
:1003700001F0C042824204D1A26802F0C04282422F
:100380000AD0C1F30140032806D1D8F80000800349
:1003900002D50120BDE8F88F264D1035286810F4ED
:1003A00040302BD001F44031814202D02178C9077E
:1003B00007D1A16801F4403181421FD02078800725
:1003C0001CD528681D49012220F440300A60002213
:1003D0000A602860C00511D5FFF700FF814641F291
:1003E000883A08E0FFF7FAFEA0EB0901514502D96F
:1003F0000320CFE71BE028688005F3D56168C1F3CF
:100400000140032808D1D8F8002001F0C04122F0B3
:10041000C0420A43C8F800202868616801F44031EE
:10042000084328601FB1306820F080503060002001
:10043000B0E700002438024000700040DC0647426C
:100440002DE9F0470E46050079D0DFF88481D8F811
:10045000000000F00100B04214D2012E05D1D8F8FE
:10046000001041F00401C8F80010D8F8001021F085
:1004700001013143C8F80010D8F8000000F0010075
:10048000B0425CD12878534C800705D52068A96814
:1004900020F0F000084320602878C0075CD04D4968
:1004A0006868083902281AD003281BD00968012877
:1004B0001BD08905002966DA216821F00301014378
:1004C0002160FFF78BFE6968074641F288300229F8
:1004D00014D0032920D0012981462AD038E00968A8
:1004E0008903E7E709688901E4E78907E2E700BFD4
:1004F000FFF774FEC11B494501D926E081462068FB
:10050000C0F381000228F3D126E000BFFFF766FEAA
:10051000C11B494501D918E081462068C0F381001C
:100520000328F3D118E000BFFFF758FEC11B49456F
:100530000BD82068C0F381000128F5D10CE022E03F
:10054000FFF74CFEC11B494502D90320BDE8F087E7
:10055000206810F00C0FF3D1D8F80010404601F0DD
:100560000101B14211D9012E03D1016841F004010A
:100570000160016821F0010131430160006800F071
:100580000100B04201D00120E0E72878400705D5FE
:100590002068E96820F4E0600843206028780007BC
:1005A00006D52068296920F4605040EAC100206027
:1005B00000F018F82168084AC1F30311515CC840E3
:1005C0000649086006480068BDE8F047FFF724BE0A
:1005D000003C024008380240051400080C000020CE
:1005E00000000020134A116801F00C0004280CD010
:1005F00008280CD00C280CD0101F0068C0F3423122
:100600004FF40040491C884070470B4870470B4826
:1006100070470B48C1F383431268C05CC1F381513A
:10062000491CD20301D5054A00E0034A5043B0FB00
:10063000F1F07047083802400024F40080841E0066
:10064000FC1300082DE9F84F04007DD0FC48016838
:10065000006801F00C0700F480362078F94DC007DF
:1006600041D0082F12D00C2F02D1B6F5803F0DD00B
:100670006068012811D008B1052818D0286820F436
:1006800080302860286820F4802009E028688003F2
:1006900029D560680028D8D025E0286840F480304B
:1006A0002860606890B1FFF799FD80460AE02868ED
:1006B00040F480202860F0E7FFF790FDA0EB0800F1
:1006C00064287BD828688003F6D50CE0FFF786FD08
:1006D000804605E0FFF782FDA0EB08006428F0D813
:1006E00028688003F6D42078DFF85CB3DFF85C83F9
:1006F00080074FF001094FF0000A35D5042F0AD0CA
:100700000C2F00D13EB1E068F8B1C8F80090FFF7B7
:1007100065FD06460BE0286880070BD5E0680128D8
:1007200012D107E0FFF75AFD801B0228C9D82868BC
:100730008007F7D5DBF80010226921F4F85141EA6F
:100740000221CBF800100FE077E1C8F800A0FFF716
:1007500045FD064605E000BFFFF740FD801B02286F
:10076000AFD828688007F7D42078C00674D53FB189
:10077000A069E0B3C8F82090FFF730FD06464AE0D4
:100780002868800502D5A069002884D0206ADBF89B
:1007900000105E4601F46041884210D900F0ECFC84
:1007A0000028BDD13068216A20F4604008433060E1
:1007B000217F306861F31F6030600FE096E03168A0
:1007C00021F4604101433160217F306861F31F6093
:1007D0003060206A00F0D0FC0028A1D1216A4FF4DB
:1007E000004009EB513188409549096800E025E057
:1007F000974AC1F30311515CC84096490860964876
:100800000068FFF709FD00286FD125E0FFF7E6FC3F
:10081000801B02286AD828688005F7D5DBF800100D
:10082000226A21F460411143CBF80010227FDBF8EB
:10083000001062F31F61CBF800100DE0C8F820A093
:10084000FFF7CCFC064604E0FFF7C8FC801B02283B
:100850004CD828688005F7D42078804E000722D530
:100860007F48616981B1C0F80090FFF7B7FC83460B
:1008700006E000BFFFF7B2FCA0EB0B00022835D862
:1008800030688007F6D50EE0C0F800A0FFF7A6FCA0
:10089000834605E0FFF7A2FCA0EB0B00022825D859
:1008A00030688007F6D4207840076DD56B484FF04C
:1008B000000B10380068C0000BD46848103801687D
:1008C00041F08051016000684FF0010B00F0805052
:1008D000009064480168C90514D4016841F480712E
:1008E0000160FFF77BFC009008E08DE079E000BF3D
:1008F000FFF774FC0099401A642872D859480068C0
:10090000C005F5D5A06801280AD008B1052811D086
:10091000306820F480703060306820F4806002E03D
:10092000306840F480703060A068A8B1FFF756FCD2
:1009300000900DE0306840F480603060F0E700BF68
:10094000FFF74CFC0099411A41F2883081425AD895
:1009500030688005F4D50EE0FFF740FC009007E01A
:10096000FFF73CFC0099411A41F2883081424AD895
:1009700030688005F4D4BBF1000F05D0374810383B
:10098000016821F080510160606A58B30C2F41D09A
:100990000228504605D0C8F86000FFF71FFC044647
:1009A00034E04746C8F86000FFF718FC064604E04C
:1009B000FFF714FC801B022825D828688001F7D493
:1009C000D4E90A1001431E48226B036823F47D0317
:1009D0001A4311430160C7F86090FFF7FFFB04461C
:1009E00007E010E040E000BFFFF7F8FB001B022823
:1009F00009D828688001F7D536E000BFFFF7EEFB85
:100A0000001B022802D90320BDE8F88F2868800166
:100A1000F4D429E00128F7D009480068A26A00F45C
:100A20008031914209D1E26A00F47011914204D1FF
:100A3000216B00F44000884216D00120E4E700005A
:100A400008380240003802400438024000004742A3
:100A5000051400080C00002000000020343802407B
:100A600080064742007000400020CDE710B5401ED0
:100A7000B0F1807F01D3012010BD4FF0E024606110
:100A80000F21601700F01FFC0020A06107202061EB
:100A9000002010BDFEE7000070B500780024342867
:100AA00065D014DC2F285AD008DC202834D0252823
:100AB00057D02A2844D02D281DD14DE0302856D0BB
:100AC000312854D0322852D0332814D14FE039285D
:100AD0004DD008DC35284AD0362848D0372846D0B3
:100AE000382808D143E03F282DD06D282ED06E281D
:100AF0002FD0FF2838D0A0F14106204D1A2E03D266
:100B000005EB400434F8824CA0F161061A2E03D2A2
:100B100005EB400030F8C24C09B144F002040AB1C0
:100B200044F020040C21002024FA01F202F00F020C
:100B30001A54091F401CC0B2C9B20428F4D370BDB6
:100B40004AF2DD04E8E746F28404E5E74BF21024BC
:100B5000E2E742F21024DFE74FF42044DCE7C02450
:100B6000DAE74FF43344D7E74FF6DD74D4E7034CAC
:100B7000343404EB400030F8604CCDE7B413000887
:100B800070B50D4E054630684007FCD42878012426
:100B900060B1002223461146284600F039F9641C52
:100BA00015F8010FE4B208B1062CF2D9306840F014
:100BB0000400306070BD0000082400402D4801682A
:100BC0002D4A114301602D48016841F48071016094
:100BD00028481030016841F400010160016821F4E7
:100BE00000010160016841F48071016001688905BC
:100BF000FCD5016841F4803101602148016821F091
:100C000060010160016841F040010160016821F06C
:100C10001C010160016841F00C010160016841F0B4
:100C200080010160011D0A6822F070720A600A6882
:100C300022F470120A600A6842F082720A600A683E
:100C400022F4E0520A600A6842F400620A60091D58
:100C50000A689206FCD5026822F00202026002686D
:100C600042F0010202600868C006FCD50868C007AF
:100C7000FCD0704724380240000200100070004091
:100C80000024004030B53348016841F0070101609D
:100C900031480168314A1143016031490A68314BDA
:100CA0001A430A6030490A68304B1A430A604168A7
:100CB00048F20E72914341602949091D0A684FF6B6
:100CC00038739A430A602849091D0A6840F6CF73B1
:100CD0009A430A60C26826490A40C260204B0C331E
:100CE0001C684FF23F0214401C601F4B0C331C6801
:100CF000204D2C401C6083680B40836018490831EC
:100D00000B6813400B60184908310A6802F47062DE
:100D10000A60016A4BF6B03211430162416A164A19
:100D2000114341620E4820300168120311430160F3
:100D3000001D016841F0BB3101600B4820300168A3
:100D40000E4A11430160001D01684BF6BB3211438E
:100D5000016030BD1C38024000000240A8002A801B
:100D600000040240800AAAAA00080240AAA0AA0021
:100D700003FFC03F000F00FFBB0B00B0BBBB00BBBD
:100D80002DE9FF4F83B09B46DDE910680D464FF01B
:100D900000090EB1B14538D2B8F1000F02D0C047FA
:100DA000002832D100246F1C0DE0A31D22466846A6
:100DB000039900F0F5FA6846FFF7E2FE641CE4B21E
:100DC000059800F09FFAA01DB842EED3584600F0F7
:100DD00099FA01244FEA0D0AC4F10607EA1B2B46D3
:100DE0006846039900F0DCFA0AEB0700234600226C
:100DF000039900F0D5FA6846FFF7C2FE059800F0A7
:100E000081FA641C062CE7DBC3E707B0BDE8F08F6E
:100E1000F8B51C466B46FFF73FFED148D049D04A93
:100E2000CF4B083010311832072C7DD2DFE804F0A8
:100E30007C043B89C7FCFB001D68CA4C25401D6033
:100E40000568254005600D6825400D601568254042
:100E500015609DF8004004F0030504F00C0445EA19
:100E600084641D682C431C609DF8013003F003046A
:100E700003F00C0344EA83630468234303609DF892
:100E8000020000F0030300F00C0043EA80600B68EE
:100E9000184308609DF8030000F0030100F00C0007
:100EA00041EA806006E11D68AF4C25401D60056881
:100EB000254005600D6825400D60156825401560CA
:100EC0001D689DF8004004F00C0645EA066504F034
:100ED0000206B60104F0010446EA840425431D60BD
:100EE00004689DF8013003F00C0544EA056403F042
:100EF0000205AD0103F0010345EA83031C430460CE
:100F00000B689DF8020000F00C0443EA046300F053
:100F10000204A40100F0010044EA800003430B60D6
:100F200011689DF8030000E0C7E000F00C0341EAFF
:100F3000036100F002039B0100F0010043EA80001E
:100F40000AE11C6824F003241C60046824F00324D4
:100F500004600C6824F003240C60146824F003245B
:100F600014609DF8004004F00C05AD0504F0030486
:100F700045EA04241D682C431C609DF8013003F0F1
:100F80000C04A40503F0030344EA03230468234389
:100F900003609DF8020000F00C039B0500F00300C5
:100FA00043EA00200B68184308609DF8030000F036
:100FB0000C01890500F0030041EA00207AE01D6879
:100FC0006A4C25401D600568254005600D68254078
:100FD0000D601568254015609DF8004004F00C0573
:100FE000AD0404F0030445EA84241D682C431C600E
:100FF0009DF8013003F00C04A40403F0030344EA59
:1010000083230468234303609DF8020000F00C036F
:101010009B0400F0030043EA80200B68184308603B
:101020009DF8030001E049E007E000F00C018904AD
:1010300000F0030041EA80203CE01C6824F44324D3
:101040001C60046824F4432404600C6824F44124E4
:101050000C60146824F4412414609DF8004004F0EE
:101060000C052D0404F0030445EA04341D682C43E8
:101070001C609DF8013003F00C04240403F003030A
:1010800044EA03330468234303609DF8020000F040
:101090000C031B0400F0010043EA00300B68184306
:1010A00008609DF8030000F00C01090400F0010045
:1010B00041EA0030116808431060F8BD1C6824F450
:1010C00070341C60046824F4703404600C6824F4E8
:1010D00070340C60146824F4703414601D689DF83A
:1010E000004004F0040645EAC63504F0080676031D
:1010F00004F0030446EA843425431D6004689DF827
:10110000013003F0040544EAC53403F008056D031B
:1011100003F0030345EA83331C4304600B689DF826
:10112000020000F0040443EAC43300F0080464033E
:1011300000F0010044EA803003430B6011689DF821
:10114000030000F0040341EAC33100F008035B032D
:1011500000F0010043EA803001431160F8BD000057
:1011600014240040FCFFFFCF03FFFFF3FFF3CFFF8A
:10117000FEE770477047000038B51C490023096836
:101180001B4A11F0F00F23D118491C310C68E500FF
:10119000184C03D5216801F4C0540EE00D6845F0E9
:1011A00080550D600D6805F08055009524680D6828
:1011B00004F4C05425F080550D60B4F5C05F07D12C
:1011C000B0F5404F04D11068012340F004001060D6
:1011D000106820F0010018431060106800F0010052
:1011E000984201D0012038BD002038BD08380240A7
:1011F000003C0240007000407047FEF7F5BF000061
:1012000070B596B034216846FEF7AFFF14210DA8E3
:10121000FEF7ABFF0024164812941394149401684F
:1012200021F4C05141F40061016001200325CDE9A2
:10123000005003900226102009960490C003CDE9C7
:101240000A4000010C906846FFF7FCF90F20CDE939
:101250000E540D90109401210DA81194FFF7F0F891
:1012600028041490129612A8FFF74CF816B070BD1F
:10127000007000400F48016841F4807101600D4921
:1012800008310A680C4B1A400A6002680B4B1A407E
:101290000260026822F480220260086820F47D0067
:1012A00008600020091D086005494FF000600860D3
:1012B00070470000003802400CC0FF88FEFFFEEEC1
:1012C00008ED00E0FEE70907090E002804DB00F145
:1012D000E02080F80014704700F00F0000F1E020DB
:1012E00080F8141D704702E008C8121F08C1002AC8
:1012F000FAD170477047002001E001C1121F002A97
:10130000FBD170474FF47A714843002100E0491C3B
:101310008142FCDB704700001CB5FEF76DFFFFF754
:101320006FFFFFF7AFFCFFF749FC1948016841F078
:1013300020010160016801F020010091016841F085
:1013400004010160016801F004010091016841F0AD
:1013500001010160016801F001010091016841F0A3
:1013600002010160006800F0020000907B20FEF79F
:1013700023FF08A42046FEF703FFC1B2002000901F
:101380000190D023F4222046FFF7FAFCFEE700008C
:101390001C380240313233343536373839300000AA
:1013A00070B5144603E00D5DA61A641C85559C4279
:1013B000F9DB70BD00FE1467001D1447009D009C02
:1013C000003F00FA1400005341980019485A095A86
:1013D000005F00FC015F01FC00AF1404005BC0185B
:1013E000815AC9005800C005005F004200F500673F
:1013F00000EA00AF00BF004600FF00EF030406084C
:101400000C10182030000000000000000001020352
:101410000406070809000000381400080000002036
:1014200010000000E6120008481400081000002018
:1014300000040000F6120008100000000100000087
:081440000000000068FF1F001E
:0400000508000125C9
:00000001FF
